{
  "contractName": "Evidences",
  "abi": [
    {
      "constant": true,
      "inputs": [],
      "name": "ecount",
      "outputs": [
        {
          "name": "",
          "type": "uint256"
        }
      ],
      "payable": false,
      "stateMutability": "view",
      "type": "function",
      "signature": "0x3fc2cf73"
    },
    {
      "constant": true,
      "inputs": [
        {
          "name": "",
          "type": "uint256"
        }
      ],
      "name": "evidarray",
      "outputs": [
        {
          "name": "caseno",
          "type": "uint256"
        },
        {
          "name": "id",
          "type": "uint256"
        },
        {
          "name": "data",
          "type": "string"
        },
        {
          "name": "capsule",
          "type": "string"
        },
        {
          "name": "ownername",
          "type": "string"
        }
      ],
      "payable": false,
      "stateMutability": "view",
      "type": "function",
      "signature": "0x642d1da4"
    },
    {
      "constant": false,
      "inputs": [
        {
          "name": "_caseno",
          "type": "uint256"
        },
        {
          "name": "_id",
          "type": "uint256"
        },
        {
          "name": "_data",
          "type": "string"
        },
        {
          "name": "_capsule",
          "type": "string"
        },
        {
          "name": "_ownername",
          "type": "string"
        }
      ],
      "name": "createEvidence",
      "outputs": [],
      "payable": false,
      "stateMutability": "nonpayable",
      "type": "function",
      "signature": "0xab6d0a61"
    }
  ],
  "bytecode": "0x60806040526000805534801561001457600080fd5b506106d7806100246000396000f3fe6080604052600436106100565763ffffffff7c01000000000000000000000000000000000000000000000000000000006000350416633fc2cf73811461005b578063642d1da414610086578063ab6d0a61146100b7575b600080fd5b34801561006757600080fd5b506100706100d9565b60405161007d9190610590565b60405180910390f35b34801561009257600080fd5b506100a66100a1366004610469565b6100df565b60405161007d9594939291906105a4565b3480156100c357600080fd5b506100d76100d236600461048f565b6102c1565b005b60005481565b6001602052806000526040600020600091509050806000015490806001015490806002018054600181600116156101000203166002900480601f0160208091040260200160405190810160405280929190818152602001828054600181600116156101000203166002900480156101975780601f1061016c57610100808354040283529160200191610197565b820191906000526020600020905b81548152906001019060200180831161017a57829003601f168201915b5050505060038301805460408051602060026001851615610100026000190190941693909304601f81018490048402820184019092528181529495949350908301828280156102275780601f106101fc57610100808354040283529160200191610227565b820191906000526020600020905b81548152906001019060200180831161020a57829003601f168201915b5050505060048301805460408051602060026001851615610100026000190190941693909304601f81018490048402820184019092528181529495949350908301828280156102b75780601f1061028c576101008083540402835291602001916102b7565b820191906000526020600020905b81548152906001019060200180831161029a57829003601f168201915b5050505050905085565b6000805460019081018083556040805160a08101825289815260208082018a81528284018a8152606084018a905260808401899052948752858252929095208151815591519382019390935590518051929391926103259260028501920190610367565b5060608201518051610341916003840191602090910190610367565b506080820151805161035d916004840191602090910190610367565b5050505050505050565b828054600181600116156101000203166002900490600052602060002090601f016020900481019282601f106103a857805160ff19168380011785556103d5565b828001600101855582156103d5579182015b828111156103d55782518255916020019190600101906103ba565b506103e19291506103e5565b5090565b6103ff91905b808211156103e157600081556001016103eb565b90565b6000601f8201831361041357600080fd5b81356104266104218261062b565b610604565b9150808252602083016020830185838301111561044257600080fd5b61044d838284610657565b50505092915050565b600061046282356103ff565b9392505050565b60006020828403121561047b57600080fd5b60006104878484610456565b949350505050565b600080600080600060a086880312156104a757600080fd5b60006104b38888610456565b95505060206104c488828901610456565b945050604086013567ffffffffffffffff8111156104e157600080fd5b6104ed88828901610402565b935050606086013567ffffffffffffffff81111561050a57600080fd5b61051688828901610402565b925050608086013567ffffffffffffffff81111561053357600080fd5b61053f88828901610402565b9150509295509295909350565b600061055782610653565b80845261056b816020860160208601610663565b61057481610693565b9093016020019392505050565b61058a816103ff565b82525050565b6020810161059e8284610581565b92915050565b60a081016105b28288610581565b6105bf6020830187610581565b81810360408301526105d1818661054c565b905081810360608301526105e5818561054c565b905081810360808301526105f9818461054c565b979650505050505050565b60405181810167ffffffffffffffff8111828210171561062357600080fd5b604052919050565b600067ffffffffffffffff82111561064257600080fd5b506020601f91909101601f19160190565b5190565b82818337506000910152565b60005b8381101561067e578181015183820152602001610666565b8381111561068d576000848401525b50505050565b601f01601f19169056fea265627a7a723058202d9c578c845b11d8882bfc19a07d9713874940af8a5f5dc0c83d055af5824dd76c6578706572696d656e74616cf50037",
  "source": "pragma solidity ^0.5.0;\r\npragma experimental ABIEncoderV2;\r\ncontract Evidences{\r\n    uint public ecount=0;\r\n\r\n    struct Evid{\r\n        uint caseno;\r\n        uint id;\r\n        string data;\r\n        string capsule;\r\n        string ownername;\r\n\r\n    }\r\n    mapping(uint => Evid)public evidarray;\r\n\r\n    function createEvidence(uint _caseno,uint _id,string memory _data,string memory _capsule,string memory _ownername)public{\r\n        ecount++;\r\n        evidarray[ecount]=Evid(_caseno, _id, _data, _capsule,_ownername);\r\n\r\n    }\r\n    \r\n\r\n\r\n}",
  "sourcePath": "C:/Users/dhadi/Desktop/EMS/contracts/Evidences.sol",
  "compiler": {
    "name": "solc",
    "version": "0.5.0+commit.1d4f565a.Emscripten.clang"
  },
  "schemaVersion": "3.0.1",
  "updatedAt": "2022-03-03T10:13:34.309Z",
  "devdoc": {
    "methods": {}
  },
  "userdoc": {
    "methods": {}
  }
}